:1000000002003032323202060A3232021F83020408
:100010003B323232323232323232323232323232B7
:1000200032323232323232323232323232323232B0
:10003000758108E4901FE093B4FF05121D8D8005C3
:10004000121FE080331208590A0D556C7472614D0D
:100050004F4E35312056312E30001208590A0D0A04
:100060000D536861646F772052414D3A2000121C95
:100070003A40E785F07CF57D7F00857C83857D8235
:10008000E4F0A30FBF80F97408F0A3E4F0A3F0A399
:1000900074FFF0A3E4F0A3F0A3F075A800C28CC233
:1000A0008D75810875D0005389F0121C0D121C0D3E
:1000B000743E121C17121C8FF5F0900158E493A3A4
:1000C000600AB5F004E493800BA380F1E5F0121C04
:1000D00017020256C0E0E5F0121C17121C15D0E002
:1000E000C0E0FD90017EED60091DA3E49370FBA3C9
:1000F00080F4E4936006121C17A380F6121C0D1204
:100100001C15121C15121C15D0E02323900110732E
:1001100002038A000203EB00020205000202FC0057
:1001200002034E00020724000206B8000218F9007C
:10013000021A57000205440002055B0002059B00FD
:100140000204FA000203FD000204290002116A0001
:1001500002025E000205B9004900470158024E0341
:10016000450444055606520754082409230A460B41
:10017000430C420D570E410F4D105311000078787B
:10018000007878787800787878782D79797979009E
:1001900078782D7979007878787800787878782D63
:1001A0007979797900787878782D79797979007802
:1001B0007878782C7A7A00787878782D79797979C6
:1001C0002C7A7A0078780064646400787878782DE6
:1001D000797979792C7A7A00787878782D797979A3
:1001E000792C7A7A7A7A00787878782C7979797992
:1001F00000787878780078787878006162635B437B
:10020000525D002000121E9E121C0D121BEAC083BC
:10021000C0827810121C15B80803121C15E0121BBE
:10022000F8ECB58206EBB583028003A3D8E6121C76
:1002300015D082D08378107E207F7FE0121D0D5074
:1002400002742E121C17ECB58207EBB58303020073
:100250009AA3D8E780B2743F121C1702009A121EAC
:10026000EA9002E2794012168C402B743A121C1765
:10027000857C83857D82E582247FF582E583340059
:10028000F5830FA3DFFDE0121BF8121C15121C41B1
:100290004067F002009A900690794012168C4059FF
:1002A000743A121C17857C83857D82E5822486F54D
:1002B00082E5833400F583E08FF05418257DF582C4
:1002C000E57C3400F583E58225F0F582E583340092
:1002D000F583E0121BF8121C15121C41401BF002A2
:1002E000009A5350004450480044504C0050310094
:1002F0004100420050535700FF020256121C414079
:10030000F8F8742D121C17121C4140EDFCC39840E4
:10031000E8121C0DE8121BF8743A121C177D10121B
:100320001C15BD0803121C15747FC398400EE57D93
:1003300028F582E57C3400F583E08001E6121BF8A5
:1003400088F0ECB5F00302009A08DDD380C3121CDC
:100350003A403485F083F582121C0D121BEA121C00
:1003600015E0121BF8121C15121C414004F0A3806A
:10037000E760FBB4010E1582E582B4FFDB158380D4
:10038000D702009AB402FA020256121C4140F8F851
:10039000121C0DE8121BF8743A121C17121C15746B
:1003A0007FC398400EE57D28F582E57C3400F58317
:1003B000E08001E6121BF8121C15121C41401EC001
:1003C000E0747FC3984010E57D28F582E57C340019
:1003D000F583D0E0F08003D0E0F60880B360FBB492
:1003E00001031880ABB40299020256121C3A40F87D
:1003F00085F083F582121C0DD2D5021D1C121C3A09
:1004000040E6C0F0C0E0742C121C17121C3A40D811
:10041000757B0085F07EF57FD0E0D0F085F083F528
:1004200082C2D5021D1C020256121C3A40F885F009
:1004300083F582757B01C2D5021D1CC0D0C0F0C0FF
:10044000E0C090C082C083E8C0E0E9C0E0EAC0E05C
:10045000EBC0E0ECC0E0EDC0E0EEC0E0EFC0E08556
:100460007E83857F82AB7EAC7F121C0D120730121B
:100470001C8FB40305757B008022B44311857E8CEC
:10048000857F8A85837E85827F757B02800BB4534E
:100490000885837E85827F80C6121C0DD0E0FFD048
:1004A000E0FED0E0FDD0E0FCD0E0FBD0E0FAD0E010
:1004B000F9E57B603FD0E0F8D083D082D090E57B37
:1004C000B40212D0E0D0F0D0D0C08AC08C758AFFC0
:1004D000758CFF8010D0E0D0F0D0D0C07FC07E758A
:1004E0008AFE758CFE5389F0438902D2B9D2A9D213
:1004F000AFD28C22021F2E020256121C3A40F8A9DB
:10050000F0FA742D121C17121C3A40EBABF0FCC32E
:10051000EC9AEB9940E1742C121C17121C3A40D74C
:10052000ADF0FE89838A82E0A3A983AA828D838E9F
:1005300082F0A3AD83AE82C3EC9AEB9950E5020042
:100540009A020256121C4140F8F5F01208593D007B
:10055000E5F0121BBA02009A020256121CA840F8DB
:10056000900000EA600CE5822464F5825002058365
:10057000DAF4E9600CE582240AF58250020583D999
:10058000F488F0E58225F0F58250020583743D126F
:100590001C17121BF102009A020256121E9E742CA6
:1005A000121C17121C4140F0F8E8F0A3EBB583F9D8
:1005B000ECB582F5E8F002009A740D121C17E57D87
:1005C0002480FCE57C3400FB7A079002E2B1E8125B
:1005D0001C0DE5F05418257DFCE57C3400FB7A0801
:1005E000900690B1E802009A120860743A121C1743
:1005F000C083C0828C828B83E0F5F0121BF8A3AB22
:1006000083AC82D082D083DADF22C0E0C0D0E57B29
:10061000B4020C757B01D0D0D0E0D12802043BD0CD
:10062000D0D0E0D128021F1FC0E0C0D0C083C0825C
:10063000E8C0E0E581C39404F890067E1208607477
:100640003A121C17E6D1A908E6D1A9E5F0D1A9080C
:10065000E61206A908E6D1A908E6D1A9E9D1A9EAD6
:10066000D1A9EBD1A9ECD1A9EDD1A9EED1A9EF1275
:100670001BF8D0E0F8D082D083D0D0D0E0220A0D91
:1006800041005053570042004450480044504C0031
:100690005230005231005232005233005234005274
:1006A0003500523600523700FF121BF812086074F2
:1006B0003A121C1722020256121E9EC083C08212DA
:1006C0001C0D12085954657374696E672E2E2E0026
:1006D000D082D0837F01E0C0E0EFF000E08FF0B582
:1006E000F01CEFC333FF50F1D0E0F0A3C3EC9582D0
:1006F000EB958350DF1208594F4B0002009AF5F03A
:10070000121BF1120859204661696C65643A00EFCA
:10071000121BF8120859213D00E5F0121BF80200E7
:100720009A02025612072A02009A121E9E121C0DED
:10073000121BEA121C15E4C083C08293F5F0900BE3
:10074000F29314FDE5F0900D1F9314FE900CF293BC
:10075000FFD082D083E475F00093121BF8121C15B1
:1007600005F0E5F0DFF3AFF0BF0302800C121C15BB
:10077000121C15121C150F80EFC083C08274091261
:100780001C17900E1FED60091DA3E49370FBA3805E
:10079000F4E4936006121C17A380F6121C15EE23D6
:1007A000239007A5730208C0000208C8000208D7FA
:1007B000000208FF0002090E0002091D0002092DB7
:1007C0000002093C00020895000208A3000208AFDD
:1007D000000208BB000209A000020951000209AB97
:1007E000000209C0000209F50002087700020A1998
:1007F00000020A2900020A3A000208EB00020A4538
:1008000000020969000208EB00020A5A00020A45C8
:1008100000020A7600020A920002086E000209FC39
:100820000002097300020AA600020985000208E21C
:1008300000020AB000020AC40002098E00020AD7B0
:10084000000208CE00020AE100020AF50002087D5B
:10085000000208890002094B00D083D08211637323
:10086000121C15E493A36005121C1780F62211597F
:10087000445054520080491159430080431159405B
:10088000412B445054520080371159404450545227
:100890002C4100802B1159412C40412B4450545283
:1008A00000801D1159412C40412B504300801111F3
:1008B00059412C4044505452008005115941420086
:1008C000D082D083A3020B081159410080F2D0825C
:1008D000D083120B24801C1159412C00D082D0836C
:1008E0008016D082D083120B158008D082D083A3CB
:1008F000120B48742C121C17A3120B38A361081199
:1009000059412C00D082D083120B24A361081159C5
:10091000412C00D082D083120B15A36108115941DC
:100920002C00D082D083A3120B48A3610811594137
:100930002C00D082D083A3120B38801D1159412C7A
:1009400000D082D083A3120B48800ED082D0838047
:100950000DD082D083A3120B84742C121C17A3E435
:1009600093FDA3120BC0020B08D082D083A3120BFD
:100970004880E6D082D083120B15742C121C17A36A
:10098000120B3880D4D082D083120B1580CBD0824A
:10099000D083120B24742C121C17A3120B3880B9AD
:1009A000D082D083A3120B84A36108D082D083A30A
:1009B000120B84742C121C177443121C17A36108A9
:1009C000D082D0837424121C17E49354E0C3131311
:1009D000131313C083C082C0E0A3E493FDA3E58397
:1009E00054F8D0F045F0F5838D82121BF1D082D0FF
:1009F00083A3A361087424121C17800A1159445060
:100A000054522C232400D082D083A3E493121BF8E9
:100A1000A3E493121BF8A361081159432C00D08260
:100A2000D083A3120B84A361081159432C2F00D04B
:100A300082D083A3120B84A36108D082D083A31237
:100A40000B48A36108D082D083A3120B48742C12E8
:100A50001C177441121C17A36108D082D083C08375
:100A6000C082A3120B48D082D083742C121C1712A0
:100A70000B24A3A36108D082D083C083C082A312B9
:100A80000B48D082D083742C121C17120B15A3A311
:100A90006108D082D083A3120B48742C121C17A3B8
:100AA000120B48A36108D082D083120B15A36108F2
:100AB000D082D083120B15742C121C177441121C97
:100AC00017A38044D082D083120B15742C121C17EC
:100AD000A3120B48A38031D082D083120B24A380B1
:100AE00027D082D083120B24742C121C177441124D
:100AF0001C17A38013D082D083120B24742C121CD9
:100B000017A3120B48A38000C3EC9582EB9583508A
:100B1000012202072D7452121C17E493540724304B
:100B2000121C17227440121C177452121C17E493E3
:100B300054012430121C17227423121C177424121F
:100B40001C17E493121BF822E493C083C082F5F0D3
:100B50007D00900F4DE493B5F01E900EE0ED60091E
:100B60001DA3E49370FBA380F4E4936006121C17AA
:100B7000A380F6D082D08322A30DBD1AD8D082D014
:100B800083020B3DE493C083C082F5F07D00901199
:100B900004E493B5F01E900F67ED60091DA3E49384
:100BA00070FBA380F4E4936006121C17A380F6D0B8
:100BB00082D08322A30DBD5CD8D082D083020B3DAE
:100BC0007424121C17C083C082ED30E715F404C5ED
:100BD00082C39582F58250021583121BF1D082D018
:100BE00083222582F58250020583121BF1D082D028
:100BF00083221C0417240D0D0D0D0D0D0D0D0D0D73
:100C00000D0D0F0116250A0A0A0A0A0A0A0A0A0A1B
:100C10000A0A0E0420220202020202020202020258
:100C2000020212012123030303030303030303034B
:100C3000030310041D1D1D1D1D1D1D1D1D1D1D1D3E
:100C40001D1D13010505050505050505050505051A
:100C5000050515042C2C2C2C2C2C2C2C2C2C2C2C61
:100C60002C2C14011D1118181818181818181818F9
:100C70001818270405190B18181818181818181818
:100C8000181818011819282828282828282828285A
:100C900028281D04180D1B2D1818181818181818B6
:100CA00018180501080806060606060606060606C2
:100CB00006061F040707292A2A2A2A2A2A2A2A2A54
:100CC0002A2A1E012626090C2B2B0C0C0C0C0C0CB2
:100CD0000C0C1A041A1A07181818181818181818CB
:100CE00018181A011A1A08181818181818181818A5
:100CF00018180101020101020303010101010203AD
:100D000002020301020202030203030202020301C0
:100D100003030102020102030102010201010201B7
:100D20001011020215272721212121212121210E25
:100D30001011020215272721212121212121210E15
:100D40001001020306040405050505050505050E49
:100D50001001020306040405050505050505052D1A
:100D60001017160306040405050505050505052DE0
:100D70001017160306040405050505050505052DD0
:100D80001017160306040405050505050505052DC0
:100D900010132B0319282823232323232323232D54
:100DA00010130A0C1D1A1A1C1C1C1C1C1C1C1C1FBA
:100DB000100F0903060404050505050505050514BE
:100DC00010131E0C012A2A25252525252525251445
:100DD000100D120708262620202020202020201574
:100DE000100D120206040405050505050505051587
:100DF000100D120218040422222222222222220B87
:100E00001004040206040405050505050505052C66
:100E100010292902172929242424242424242441A4
:100E200043414C4C00414444004144444300414A46
:100E30004D5000414E4C00434A4E4500434C520039
:100E400043504C004441004445430044495600444B
:100E50004A4E5A00494E43004A42004A4243004A21
:100E600043004A4D50004A4E42004A4E43004A4E0B
:100E70005A004A5A004C43414C4C004C4A4D5000D9
:100E80004D4F56004D4F5643004D4F5658004D554F
:100E90004C004E4F50004F524C00504F5000505598
:100EA000534800524554005245544900524C005298
:100EB0004C43005252005252430053455442005397
:100EC0004A4D500053554242005357415000584339
:100ED0004800584348440058524C003F3F3F00FFF1
:100EE00050300053500044504C0044504800504390
:100EF0004F4E0054434F4E00544D4F4400544C301D
:100F000000544C31005448300054483100503100F6
:100F100053434F4E0053425546005032004945005E
:100F20005033004950005432434F4E005243415019
:100F3000324C0052434150324800544C3200544825
:100F4000320050535700414343004200FF808182EA
:100F5000838788898A8B8C8D909899A0A8B0B8C80F
:100F6000CACBCCCDD0E0F050302E300050302E31F6
:100F70000050302E320050302E330050302E3400CE
:100F800050302E350050302E360050302E3700496C
:100F9000543000494530004954310049453100542E
:100FA0005230005446300054523100544631005003
:100FB000312E300050312E310050312E3200503160
:100FC0002E330050312E340050312E350050312E4A
:100FD000360050312E3700524900544900524238F1
:100FE000005442380052454E00534D3200534D31AB
:100FF00000534D300050322E300050322E31005010
:10100000322E320050322E330050322E3400503205
:101010002E350050322E360050322E3700455830D3
:1010200000455430004558310045543100455300C7
:101030004554320045410050332E300050332E319C
:101040000050332E320050332E330050332E3400F4
:1010500050332E350050332E360050332E3700508B
:101060005830005054300050583100505431005026
:101070005300505432004350524C3200435432001B
:10108000545232004558454E3200544C434B0052A6
:10109000434C4B0045584632005446320050004FF6
:1010A0005600525330005253310046300041430045
:1010B0004359004143432E30004143432E31004108
:1010C00043432E32004143432E33004143432E34E9
:1010D000004143432E35004143432E3600414343F4
:1010E0002E3700422E3000422E3100422E32004276
:1010F0002E3300422E3400422E3500422E3600425E
:101100002E3700FF808182838485868788898A8B39
:101110008C8D8E8F909192939495969798999A9B97
:101120009C9D9E9FA0A1A2A3A4A5A6A7A8A9AAAB87
:10113000ACADAFB0B1B2B3B4B5B6B7B8B9BABBBC69
:10114000BDC8C9CACBCCCDCECFD0D2D3D4D5D6D7BB
:10115000E0E1E2E3E4E5E6E7F0F1F2F3F4F5F6F7D7
:10116000020256743F121C178008121C3A40F1AB61
:10117000F0FC121C0D8B838C82121BEA121C1512C0
:101180001EEA900E1F794012168C40D7BF2C0280A9
:10119000D29016C6EF6009E493A3B4FFFA1F80F45F
:1011A000858371858272E493F575A3E4932323907C
:1011B00011B37302129D000212A3000212B60002C4
:1011C00012D3000212E7000212FB00021318000201
:1011D000134000021368000213870002139B0002F1
:1011E00013AF000213C100021536000214D2000230
:1011F00013CC000213DC000213EC000214E6000220
:1012000014FA000213FF00021470000214B5000269
:1012100015160002146E00021495000214B50002A7
:1012200014A7000215550002157A0002158D000260
:10123000142F000215AA000215C200021455000264
:1012400016010002141600021428000215BB000249
:10125000145C000215E40002140F000216150002CF
:10126000162800021647005013857282857183A3E9
:10127000A3E493B4FF030211630211A08B838C8259
:10128000EFFEE575F0A3DF02800CE576F0A3DF0248
:101290008004E577F0A3AB83AC82021172C37F01B7
:1012A000021267D18390165AD18C40057F01021239
:1012B00067D186021267D18390165AD18C400FD124
:1012C0008112183A40047F028006D1898002D186BB
:1012D000021267D18390165AD18C40F2D181121834
:1012E0006440E77F0180E9D18390165AD18C40DEBB
:1012F000D18112187540D37F0180D5D18390165AC1
:10130000D18C40CAD1811218D340047F028006D10B
:10131000898002D186021267D18390165AD18C40FF
:10132000F2D18112183A40E7857678D183121832CB
:1013300040DD12180040D8857876F5777F0380D598
:10134000D18390165AD18C40CAD1811218D340BF94
:10135000857678D18312183240B512180040B085D6
:101360007876F5777F0380ADD18390165AD18C4083
:1013700011D181901671D18C40047F018006D189F2
:101380008002D186021267D18390165AD18C40F226
:10139000D18190167AD18C40E580DFD18390165AA6
:1013A000D18C40DED18190166AD18C40D180CBD1D6
:1013B0008390165DD18C40047F018002D186021299
:1013C00067D1831218C640F47F0280F2D1831218CD
:1013D0003240141217D7400F7F02800DD1831218AC
:1013E0003240047F038002D186021267D1839016B7
:1013F00061D18C40057F01021267D186021267D14C
:10140000831218D340047F028002D186021267D172
:10141000831218648005D1831218754073D181122C
:1014200018D340687F02806AD1831218648005D186
:1014300083121875405AD18112183A404F85767838
:10144000D18312183240451218004040857876F555
:10145000777F03803DD1831218758005D1831218E0
:1014600064402DD18112183A40227F0280248000EE
:10147000D1831218D34019857677D18112183A405A
:101480000B7F03C076857776D0778006D18980027E
:10149000D186021267D1831218D340F4D181121879
:1014A0006440E97F0280EBD1831218D340E2D181FE
:1014B00012187580ECD1831218D34011D181901687
:1014C0005AD18C40047F028006D1898002D18602E5
:1014D0001267D1831218C640F4D181901661D18C65
:1014E00040E77F0280E9D183901661D18C40DED144
:1014F000811218C640D37F0280D5D183901661D166
:101500008C40CAD181E7B42F0A091218C640BA7FAD
:101510000280BCD380B9D1831218D340B0857678CD
:10152000D18112183240A2121800409D857876F5BC
:10153000777F03021267D1831218C6403885767808
:10154000D181121832402A1218004025857876F58C
:10155000777F038022D1831218D34019857677D103
:10156000811218D3400B7F03C076857776D07780C1
:1015700006D1898002D186021267D183901664D188
:101580008C40057F01021267D186021267D18390D9
:101590001664D18C400FD18112184B40047F038018
:1015A00006D1898002D186021267D1831218754054
:1015B000057F01021267D186021267D18312186477
:1015C00080EDD1831218754016D181121832400B6C
:1015D0001217FB4006F5767F028006D1898002D182
:1015E00086021267D1831218644011D18190165A75
:1015F000D18C40047F018006D1898002D1860212FD
:1016000067D18312187540F4D18190165AD18C405D
:10161000E77F0180E9D183901671D18C40057F016D
:10162000021267D186021267D18390166AD18C406C
:1016300011D18190165AD18C40047F018006D18946
:101640008002D186021267D18312183240F4121739
:10165000FB40EFF5767F020212674100FF41420036
:10166000FF4300FF4450545200FF40445054520086
:10167000FF40412B4450545200FF40412B50430047
:10168000FFE9FAE8F922E9F822EAF8227F00D18698
:10169000E493B4FF02802A6008C396701908A380FF
:1016A000EFE6B40902801CB420028017B42C02803B
:1016B00012B40D09800DE4936003A380F9A30F8099
:1016C000CDD32208C322110FFF24022603280425AC
:1016D00005FF3402360338043505FF010FFF5402BD
:1016E0005603580455058212B01353155216FFB60F
:1016F00025B406B507B81FFFE401C311C20CFFF4FF
:1017000001B311B20CFFD401FF16261401182015E5
:1017100014FF840BFFD821D517FF06260401A31D53
:1017200008200514FF200DFF100DFF402CFF732A29
:10173000FF300DFF502CFF702CFF602CFF1210FFAC
:101740000210FF7627F628A6297402E603E804E5CE
:1017500005A212901E7822F823A824920E751586F1
:1017600019F516881B851CFF93088309FFF02BF2DF
:1017700028E00AE203FFA40BFF0000FF4402460337
:10178000480445057212A01343154216FFD014FFFA
:10179000C014FF2200FF3200FF2301FF3301FF03CB
:1017A00001FF1301FFD311D20CFF802CFF9402968E
:1017B0000398049505FFC401FFC603C804C505FFCF
:1017C000D603FF640266036804650563156216FFAD
:1017D0008B838C82A3A3221217D0E58354F8F5F0F3
:1017E000E57654F8B5F012E5765407232323232336
:1017F0004575F575857776C322D3221217D08004FC
:101800001217D0A3E577C39582F582E5769583F527
:1018100083B400028005B4FF17800BE582C3948077
:10182000500EC3E58222E582C394804003E5822204
:10183000D322121686121896801712168612189145
:10184000406AF576081218AE406222121686121807
:10185000914059F5760812189B4051F577081218F7
:10186000AE404922E6B4404408E6B4523F08E67E62
:10187000307F32800AE6B4523308E67E307F381279
:101880001D0D402894304575F575081218AE401CA2
:1018900022E6B4231708E6B4241208E6121C7740A7
:1018A0000BC4FD08E6121C7740024D22D322E6B499
:1018B0000902800DB420028008B42C028003B40D0C
:1018C0000308C322D322900F6712168C4015901183
:1018D00004800B900EE012168C4008900F4DEF9391
:1018E000F576221216861218964009F57608121817
:1018F000AE400122D322020256121C3A40F8F57281
:1019000085F071742C121C17121C4140E9F8121C4E
:101910000D120859526561647920746F20646F77E5
:101920006E6C6F616420584D4F44454D2E2E2E0A2B
:101930000D00757500757600757700757800757403
:1019400000757B017443121E6A121E7250160574D4
:10195000E574B40AEF7574000575E575B406E574B1
:1019600001021A51B401198032121E72500574021C
:10197000021A51B4040A7406121E6A7400021A5143
:10198000B401028016121E7250FB7415121E6A05F5
:1019900076E576B40AD37403021A51757600121EE6
:1019A0007250057404021A51F574121E72500574B7
:1019B00005021A51F4B574028016121E7250FB749F
:1019C00015121E6A0577E577B40A9E7406021A514D
:1019D000B57B028005157B121EBF757700757300FD
:1019E000757900757A00121E72500474078062F5D2
:1019F00074121E8B0572E57270020571E574121E79
:101A0000CB0573E573B480DE7400121ECB74001234
:101A10001ECB121E72500474098036F574121E72A9
:101A200050047409802BB57A12E574B5790D057BE5
:101A30007578007406121E6A021969121EBF0578B5
:101A40007415121E6AE578B40A047408800302193A
:101A500069021B77020256121C3A40F885F071F5B4
:101A600072742D121C17121C3A40E985F07EF57F26
:101A7000C3E57F9572E57E957140D9742C121C17D1
:101A8000121C4140CFF8121C0D12085952656164B6
:101A90007920746F2075706C6F616420584D4F44CD
:101AA000454D2E2E2E0A0D00757B0175740075753F
:101AB00000757600757700121E7250160574E57475
:101AC000B40AF47574000575E575B406EA740B0282
:101AD0001B7CB443E7757900757A00C2D574011296
:101AE0001E6AE57B121E6AF4121E6A75730020D509
:101AF00005121E938002741A121E6A121ECB20D584
:101B00000CE571B57E07E572B57F02D2D50572E5A9
:101B100072700205710573E573B480D27400121EF1
:101B2000CB7400121ECBE579121E6AE57A121E6A8A
:101B3000121E725004740C8043B4062A20D5077517
:101B40007700057B808F7404121E6A121E72500487
:101B5000740C8028B40604740080210576E576B400
:101B60000AE4740D8016121EBF0577E577B40A04E7
:101B7000740E8008021AD5FF121C0DEFFF121BBA5B
:101B8000EF60141208593A556E7375636365737389
:101B900066756C0002009A1208593A5375636365C2
:101BA000737366756C2C657869743A2024008571AE
:101BB00083857282121BF102009A6020B464238034
:101BC00005B40A22800B75F064842430121C17E5DA
:101BD000F075F00A842430121C17E5F02430121C32
:101BE000172240DD80E040F480E771F1743A9117EC
:101BF00022E583121BF8E582C0E0C4121C00D0E08D
:101C0000540F2430B43A00400E2407800A740A911D
:101C100017740D800274203099FDC299F5992098AF
:101C20000122C0E0C298E599B40305D0E002009A11
:101C30003098FDC298E599D0E022121C414034F55D
:101C4000F0121C8FB42F03D3E422B45C04D37401CC
:101C500022B40D0280F1B40304D3740322121C17C2
:101C6000121C77400FC4FD121C8F121C17121C7718
:101C700040024D227402227E307F3A121D0D400335
:101C80009430227E417F47121D0D4002943722304E
:101C900098FDC298E599C0E0249F50099419500519
:101CA000D0E0941F22D0E022780079007A00121C44
:101CB0008F7E307F3A121D0D402B121C179430FA84
:101CC000121C8F7E307F3A121D0D401E121C17947D
:101CD00030F9121C8F7E307F3A121D0D4015121CF8
:101CE000179430F822B40D16D322B40D11EAF87A05
:101CF00000C322B40D08E9F8EAF97A00C322121CE5
:101D000017020256E4309804C298E59922C0E0C355
:101D10009E4006D0E0C0E09FB3D0E02285828A8555
:101D2000838C857C83857D82E0F5F0A37801E0F6E5
:101D300008A3B87BF9E030D501F608A3B880F68592
:101D4000F000E0F581A3C08AC08CE0F58CA3E0F53B
:101D50008AA3E0F590A3E0C0E0A3E0F5F0A320D5CE
:101D600020E0858C83858A82758AFF758CFF538974
:101D7000F0438902D2B9D2A9D2AFF5D0D0E0D28C4B
:101D800022E0858C83858A82F5D0D0E0227B0079A1
:101D900000780420B0FDD8FEC3E99401F9EB94006B
:101DA000FB780330B0F020B0FD30B0FD7A00901E1B
:101DB00022E493A38BF0B5F00AE493A389F0B5F085
:101DC00009800BA30ABA08E980040ABA08E3EA907A
:101DD0001E5A93758920F58DF58B53877FEA901EE7
:101DE00062934587F5877588497598521208590A94
:101DF0000D4F6E2D6C696E652061742000901E324F
:101E0000EA60091AA3E49370FBA380F4E4936006EC
:101E1000121C17A380F612085920626175640D0D1B
:101E20000022FFEEFFE8FFDCFFB8FF70FEE0FDC020
:101E3000FB803139323030003134343030003936C3
:101E4000303000343830300032343030003132300D
:101E500030003630300033303000FDFCFDFAF4E85D
:101E6000D0A080800000000000003099FDC299F5EC
:101E7000992288F0AFF07EFF7DFF309806C298E58A
:101E800099C322DDF5DEF1DFEDD322857183857202
:101E900082F022857183857282E022020256121C32
:101EA0003A40F885F083F582742D121C17121C3A03
:101EB00040E9ABF0FCC3EC9582EB958340DD22E575
:101EC00072C39480F57250021571227F08F574C3B5
:101ED000E57433F574E57A33F57AE57933F57950BD
:101EE00006637910637A21DFE622E47840F608B8C9
:101EF00070FB7840121C8FB40D03F68021B40302EE
:101F00008019B4080B121C17187620B83FE6800819
:101F1000F6121C1708B86FDC02025602009A22C0A3
:101F2000D0C0F0C0E0C090C082C083E8C0E0E581CE
:101F3000F58AC39406F58114F58C857C83857D82B2
:101F400075F000A8F0E6F0A305F0E5F0B47BF4E549
:101F50007D2486F582E57C3400F583A881E6F008CF
:101F60001582E582B4FF021583E8B58AF0E58CF0AE
:101F7000E5D05418257DF582E57C3400F583E6F044
:101F800002009AC0D0C0E0E8C0E0E57BB401028066
:101F900026E581C39403F8E6B57E1418E6B57F0FF5
:101FA0007406F6087400F6C2A9C2AFC28CC28DD006
:101FB000E0F8D0E0D0D032E581C39403F8E6F57EB6
:101FC00018E6F57F740EF6087400F6C2A9C2AFC217
:101FD0008CC28DD0E0F8D0E0D0D012062832FFFFBE
:101FE000FFFFFFFFFFFFFFFFFFFFFFFFFFFFFFFF01
:101FF000FFFFFFFFFFFFFFFFFFFFFFFFFFFFFFFFF1
:00000001FF
